{
  "abi": [
    {
      "anonymous": false,
      "inputs": [
        {
          "indexed": true,
          "internalType": "address",
          "name": "owner",
          "type": "address"
        },
        {
          "indexed": true,
          "internalType": "address",
          "name": "operator",
          "type": "address"
        },
        {
          "indexed": false,
          "internalType": "bool",
          "name": "approved",
          "type": "bool"
        }
      ],
      "name": "ApprovalForAll",
      "type": "event"
    },
    {
      "anonymous": false,
      "inputs": [
        {
          "indexed": true,
          "internalType": "address",
          "name": "previousOwner",
          "type": "address"
        },
        {
          "indexed": true,
          "internalType": "address",
          "name": "newOwner",
          "type": "address"
        }
      ],
      "name": "OwnershipTransferred",
      "type": "event"
    },
    {
      "anonymous": false,
      "inputs": [
        {
          "indexed": true,
          "internalType": "address",
          "name": "operator",
          "type": "address"
        },
        {
          "indexed": true,
          "internalType": "address",
          "name": "from",
          "type": "address"
        },
        {
          "indexed": true,
          "internalType": "address",
          "name": "to",
          "type": "address"
        },
        {
          "indexed": false,
          "internalType": "uint256[]",
          "name": "ids",
          "type": "uint256[]"
        },
        {
          "indexed": false,
          "internalType": "uint256[]",
          "name": "amounts",
          "type": "uint256[]"
        }
      ],
      "name": "TransferBatch",
      "type": "event"
    },
    {
      "anonymous": false,
      "inputs": [
        {
          "indexed": true,
          "internalType": "address",
          "name": "operator",
          "type": "address"
        },
        {
          "indexed": true,
          "internalType": "address",
          "name": "from",
          "type": "address"
        },
        {
          "indexed": true,
          "internalType": "address",
          "name": "to",
          "type": "address"
        },
        {
          "indexed": false,
          "internalType": "uint256",
          "name": "id",
          "type": "uint256"
        },
        {
          "indexed": false,
          "internalType": "uint256",
          "name": "amount",
          "type": "uint256"
        }
      ],
      "name": "TransferSingle",
      "type": "event"
    },
    {
      "anonymous": false,
      "inputs": [
        {
          "indexed": false,
          "internalType": "string",
          "name": "value",
          "type": "string"
        },
        {
          "indexed": true,
          "internalType": "uint256",
          "name": "id",
          "type": "uint256"
        }
      ],
      "name": "URI",
      "type": "event"
    },
    {
      "inputs": [],
      "name": "addBoardCollection",
      "outputs": [],
      "stateMutability": "nonpayable",
      "type": "function"
    },
    {
      "inputs": [
        {
          "internalType": "address",
          "name": "",
          "type": "address"
        },
        {
          "internalType": "uint256",
          "name": "",
          "type": "uint256"
        }
      ],
      "name": "balanceOf",
      "outputs": [
        {
          "internalType": "uint256",
          "name": "",
          "type": "uint256"
        }
      ],
      "stateMutability": "view",
      "type": "function"
    },
    {
      "inputs": [
        {
          "internalType": "address[]",
          "name": "owners",
          "type": "address[]"
        },
        {
          "internalType": "uint256[]",
          "name": "ids",
          "type": "uint256[]"
        }
      ],
      "name": "balanceOfBatch",
      "outputs": [
        {
          "internalType": "uint256[]",
          "name": "balances",
          "type": "uint256[]"
        }
      ],
      "stateMutability": "view",
      "type": "function"
    },
    {
      "inputs": [],
      "name": "baseURI",
      "outputs": [
        {
          "internalType": "string",
          "name": "",
          "type": "string"
        }
      ],
      "stateMutability": "view",
      "type": "function"
    },
    {
      "inputs": [
        {
          "internalType": "uint256",
          "name": "",
          "type": "uint256"
        }
      ],
      "name": "boardCollections",
      "outputs": [
        {
          "internalType": "uint256",
          "name": "",
          "type": "uint256"
        }
      ],
      "stateMutability": "view",
      "type": "function"
    },
    {
      "inputs": [
        {
          "internalType": "uint256",
          "name": "",
          "type": "uint256"
        }
      ],
      "name": "boardCollectionsName",
      "outputs": [
        {
          "internalType": "string",
          "name": "",
          "type": "string"
        }
      ],
      "stateMutability": "view",
      "type": "function"
    },
    {
      "inputs": [
        {
          "internalType": "string",
          "name": "_newURI",
          "type": "string"
        }
      ],
      "name": "changeBaseURI",
      "outputs": [],
      "stateMutability": "nonpayable",
      "type": "function"
    },
    {
      "inputs": [
        {
          "internalType": "uint256",
          "name": "_tokenID",
          "type": "uint256"
        }
      ],
      "name": "getTokenCollection",
      "outputs": [
        {
          "internalType": "string",
          "name": "",
          "type": "string"
        }
      ],
      "stateMutability": "view",
      "type": "function"
    },
    {
      "inputs": [
        {
          "internalType": "address",
          "name": "",
          "type": "address"
        },
        {
          "internalType": "address",
          "name": "",
          "type": "address"
        }
      ],
      "name": "isApprovedForAll",
      "outputs": [
        {
          "internalType": "bool",
          "name": "",
          "type": "bool"
        }
      ],
      "stateMutability": "view",
      "type": "function"
    },
    {
      "inputs": [],
      "name": "latestBoardCollectionID",
      "outputs": [
        {
          "internalType": "uint256",
          "name": "",
          "type": "uint256"
        }
      ],
      "stateMutability": "view",
      "type": "function"
    },
    {
      "inputs": [],
      "name": "latestTokenID",
      "outputs": [
        {
          "internalType": "uint256",
          "name": "",
          "type": "uint256"
        }
      ],
      "stateMutability": "view",
      "type": "function"
    },
    {
      "inputs": [
        {
          "internalType": "address",
          "name": "_recipient",
          "type": "address"
        }
      ],
      "name": "mintNFT",
      "outputs": [],
      "stateMutability": "nonpayable",
      "type": "function"
    },
    {
      "inputs": [],
      "name": "owner",
      "outputs": [
        {
          "internalType": "address",
          "name": "",
          "type": "address"
        }
      ],
      "stateMutability": "view",
      "type": "function"
    },
    {
      "inputs": [],
      "name": "renounceOwnership",
      "outputs": [],
      "stateMutability": "nonpayable",
      "type": "function"
    },
    {
      "inputs": [
        {
          "internalType": "address",
          "name": "from",
          "type": "address"
        },
        {
          "internalType": "address",
          "name": "to",
          "type": "address"
        },
        {
          "internalType": "uint256[]",
          "name": "ids",
          "type": "uint256[]"
        },
        {
          "internalType": "uint256[]",
          "name": "amounts",
          "type": "uint256[]"
        },
        {
          "internalType": "bytes",
          "name": "data",
          "type": "bytes"
        }
      ],
      "name": "safeBatchTransferFrom",
      "outputs": [],
      "stateMutability": "nonpayable",
      "type": "function"
    },
    {
      "inputs": [
        {
          "internalType": "address",
          "name": "from",
          "type": "address"
        },
        {
          "internalType": "address",
          "name": "to",
          "type": "address"
        },
        {
          "internalType": "uint256",
          "name": "id",
          "type": "uint256"
        },
        {
          "internalType": "uint256",
          "name": "amount",
          "type": "uint256"
        },
        {
          "internalType": "bytes",
          "name": "data",
          "type": "bytes"
        }
      ],
      "name": "safeTransferFrom",
      "outputs": [],
      "stateMutability": "nonpayable",
      "type": "function"
    },
    {
      "inputs": [
        {
          "internalType": "address",
          "name": "operator",
          "type": "address"
        },
        {
          "internalType": "bool",
          "name": "approved",
          "type": "bool"
        }
      ],
      "name": "setApprovalForAll",
      "outputs": [],
      "stateMutability": "nonpayable",
      "type": "function"
    },
    {
      "inputs": [
        {
          "internalType": "string",
          "name": "_name",
          "type": "string"
        },
        {
          "internalType": "uint256",
          "name": "_boardCollectionID",
          "type": "uint256"
        }
      ],
      "name": "setBoardCollectionName",
      "outputs": [],
      "stateMutability": "nonpayable",
      "type": "function"
    },
    {
      "inputs": [
        {
          "internalType": "bytes4",
          "name": "interfaceId",
          "type": "bytes4"
        }
      ],
      "name": "supportsInterface",
      "outputs": [
        {
          "internalType": "bool",
          "name": "",
          "type": "bool"
        }
      ],
      "stateMutability": "view",
      "type": "function"
    },
    {
      "inputs": [
        {
          "internalType": "address",
          "name": "newOwner",
          "type": "address"
        }
      ],
      "name": "transferOwnership",
      "outputs": [],
      "stateMutability": "nonpayable",
      "type": "function"
    },
    {
      "inputs": [
        {
          "internalType": "uint256",
          "name": "_tokenID",
          "type": "uint256"
        }
      ],
      "name": "uri",
      "outputs": [
        {
          "internalType": "string",
          "name": "",
          "type": "string"
        }
      ],
      "stateMutability": "view",
      "type": "function"
    }
  ],
  "bytecode": {
    "object": "0x6000600581905560065560c0604052601760808190527f68747470733a2f2f7870746f2e636f6d2f746f6b656e2f00000000000000000060a09081526200004a9160079190620000bc565b503480156200005857600080fd5b5062000064336200006a565b6200019e565b600280546001600160a01b038381166001600160a01b0319831681179093556040519116919082907f8be0079c531659141344cd1fd0a4f28419497f9722a3daafe3b4186f6b6457e090600090a35050565b828054620000ca9062000162565b90600052602060002090601f016020900481019282620000ee576000855562000139565b82601f106200010957805160ff191683800117855562000139565b8280016001018555821562000139579182015b82811115620001395782518255916020019190600101906200011c565b50620001479291506200014b565b5090565b5b808211156200014757600081556001016200014c565b600181811c908216806200017757607f821691505b6020821081036200019857634e487b7160e01b600052602260045260246000fd5b50919050565b61131a80620001ae6000396000f3fe608060405234801561001057600080fd5b50600436106101365760003560e01c80636c0360eb116100b8578063e985e9c51161007c578063e985e9c51461029c578063e9df613c146102ca578063ecbde8c5146102dd578063f242432a146102f0578063f2fde38b14610306578063f8ba6add1461031957600080fd5b80636c0360eb14610255578063715018a61461025d5780638da5cb5b146102655780639c8e2a1714610280578063a22cb4651461028957600080fd5b80633074cb51116100ff5780633074cb51146101f357806339a0c6f9146101fc57806346699ffb1461020f5780634e1273f41461022257806354ba0f271461024257600080fd5b8062fdd58e1461013b57806301ffc9a7146101765780630e89341c146101995780630f67ca3c146101b95780632eb2c2d6146101d9575b600080fd5b610163610149366004610bc6565b600060208181529281526040808220909352908152205481565b6040519081526020015b60405180910390f35b610189610184366004610c06565b610321565b604051901515815260200161016d565b6101ac6101a7366004610c2a565b610373565b60405161016d9190610c9b565b6101636101c7366004610c2a565b60036020526000908152604090205481565b6101f16101e7366004610d3c565b5050505050505050565b005b61016360065481565b6101f161020a366004610e9a565b6103a7565b6101f161021d366004610ecf565b6103c6565b610235610230366004610f14565b6103f2565b60405161016d9190610f80565b6101f1610250366004610fc4565b61052c565b6101ac61057f565b6101f161060d565b6002546040516001600160a01b03909116815260200161016d565b61016360055481565b6101f1610297366004610fdf565b610621565b6101896102aa36600461101b565b600160209081526000928352604080842090915290825290205460ff1681565b6101ac6102d8366004610c2a565b61068d565b6101ac6102eb366004610c2a565b610740565b6101f16102fe36600461104e565b505050505050565b6101f1610314366004610fc4565b610759565b6101f16107d2565b60006301ffc9a760e01b6001600160e01b0319831614806103525750636cdb3d1360e11b6001600160e01b03198316145b8061036d57506303a24d0760e21b6001600160e01b03198316145b92915050565b60606007610380836107f1565b60405160200161039192919061111c565b6040516020818303038152906040529050919050565b6103af6108fa565b80516103c2906007906020840190610b11565b5050565b6103ce6108fa565b600081815260046020908152604090912083516103ed92850190610b11565b505050565b606083821461043a5760405162461bcd60e51b815260206004820152600f60248201526e0988a9c8ea890be9a92a69a82a8869608b1b60448201526064015b60405180910390fd5b8367ffffffffffffffff81111561045357610453610df7565b60405190808252806020026020018201604052801561047c578160200160208202803683370190505b50905060005b848110156105235760008087878481811061049f5761049f6111d0565b90506020020160208101906104b49190610fc4565b6001600160a01b03166001600160a01b0316815260200190815260200160002060008585848181106104e8576104e86111d0565b90506020020135815260200190815260200160002054828281518110610510576105106111d0565b6020908102919091010152600101610482565b50949350505050565b6105346108fa565b60068054906000610544836111fc565b919050555061056781600654600160405180602001604052806000815250610954565b50600554600654600090815260036020526040902055565b6007805461058c906110c6565b80601f01602080910402602001604051908101604052809291908181526020018280546105b8906110c6565b80156106055780601f106105da57610100808354040283529160200191610605565b820191906000526020600020905b8154815290600101906020018083116105e857829003601f168201915b505050505081565b6106156108fa565b61061f6000610abf565b565b3360008181526001602090815260408083206001600160a01b03871680855290835292819020805460ff191686151590811790915590519081529192917f17307eab39ab6107e8899845ad3d59bd9653f200f220920489ca2b5937696c31910160405180910390a35050565b6000818152600360209081526040808320548084526004909252909120805460609291906106ba906110c6565b80601f01602080910402602001604051908101604052809291908181526020018280546106e6906110c6565b80156107335780601f1061070857610100808354040283529160200191610733565b820191906000526020600020905b81548152906001019060200180831161071657829003601f168201915b5050505050915050919050565b6004602052600090815260409020805461058c906110c6565b6107616108fa565b6001600160a01b0381166107c65760405162461bcd60e51b815260206004820152602660248201527f4f776e61626c653a206e6577206f776e657220697320746865207a65726f206160448201526564647265737360d01b6064820152608401610431565b6107cf81610abf565b50565b6107da6108fa565b600580549060006107ea836111fc565b9190505550565b6060816000036108185750506040805180820190915260018152600360fc1b602082015290565b8160005b8115610842578061082c816111fc565b915061083b9050600a8361122b565b915061081c565b60008167ffffffffffffffff81111561085d5761085d610df7565b6040519080825280601f01601f191660200182016040528015610887576020820181803683370190505b5090505b84156108f25761089c60018361123f565b91506108a9600a86611256565b6108b490603061126a565b60f81b8183815181106108c9576108c96111d0565b60200101906001600160f81b031916908160001a9053506108eb600a8661122b565b945061088b565b949350505050565b6002546001600160a01b0316331461061f5760405162461bcd60e51b815260206004820181905260248201527f4f776e61626c653a2063616c6c6572206973206e6f7420746865206f776e65726044820152606401610431565b6001600160a01b0384166000908152602081815260408083208684529091528120805484929061098590849061126a565b909155505060408051848152602081018490526001600160a01b0386169160009133917fc3d58168c5ae7397731d063d5bbf3d657854427343f4c083240f7aacaa2d0f62910160405180910390a46001600160a01b0384163b15610a6d5760405163f23a6e6160e01b808252906001600160a01b0386169063f23a6e6190610a1a903390600090899089908990600401611282565b6020604051808303816000875af1158015610a39573d6000803e3d6000fd5b505050506040513d601f19601f82011682018060405250810190610a5d91906112c7565b6001600160e01b03191614610a7a565b6001600160a01b03841615155b610ab95760405162461bcd60e51b815260206004820152601060248201526f155394d0519157d49150d2541251539560821b6044820152606401610431565b50505050565b600280546001600160a01b038381166001600160a01b0319831681179093556040519116919082907f8be0079c531659141344cd1fd0a4f28419497f9722a3daafe3b4186f6b6457e090600090a35050565b828054610b1d906110c6565b90600052602060002090601f016020900481019282610b3f5760008555610b85565b82601f10610b5857805160ff1916838001178555610b85565b82800160010185558215610b85579182015b82811115610b85578251825591602001919060010190610b6a565b50610b91929150610b95565b5090565b5b80821115610b915760008155600101610b96565b80356001600160a01b0381168114610bc157600080fd5b919050565b60008060408385031215610bd957600080fd5b610be283610baa565b946020939093013593505050565b6001600160e01b0319811681146107cf57600080fd5b600060208284031215610c1857600080fd5b8135610c2381610bf0565b9392505050565b600060208284031215610c3c57600080fd5b5035919050565b60005b83811015610c5e578181015183820152602001610c46565b83811115610ab95750506000910152565b60008151808452610c87816020860160208601610c43565b601f01601f19169290920160200192915050565b602081526000610c236020830184610c6f565b60008083601f840112610cc057600080fd5b50813567ffffffffffffffff811115610cd857600080fd5b6020830191508360208260051b8501011115610cf357600080fd5b9250929050565b60008083601f840112610d0c57600080fd5b50813567ffffffffffffffff811115610d2457600080fd5b602083019150836020828501011115610cf357600080fd5b60008060008060008060008060a0898b031215610d5857600080fd5b610d6189610baa565b9750610d6f60208a01610baa565b9650604089013567ffffffffffffffff80821115610d8c57600080fd5b610d988c838d01610cae565b909850965060608b0135915080821115610db157600080fd5b610dbd8c838d01610cae565b909650945060808b0135915080821115610dd657600080fd5b50610de38b828c01610cfa565b999c989b5096995094979396929594505050565b634e487b7160e01b600052604160045260246000fd5b600082601f830112610e1e57600080fd5b813567ffffffffffffffff80821115610e3957610e39610df7565b604051601f8301601f19908116603f01168101908282118183101715610e6157610e61610df7565b81604052838152866020858801011115610e7a57600080fd5b836020870160208301376000602085830101528094505050505092915050565b600060208284031215610eac57600080fd5b813567ffffffffffffffff811115610ec357600080fd5b6108f284828501610e0d565b60008060408385031215610ee257600080fd5b823567ffffffffffffffff811115610ef957600080fd5b610f0585828601610e0d565b95602094909401359450505050565b60008060008060408587031215610f2a57600080fd5b843567ffffffffffffffff80821115610f4257600080fd5b610f4e88838901610cae565b90965094506020870135915080821115610f6757600080fd5b50610f7487828801610cae565b95989497509550505050565b6020808252825182820181905260009190848201906040850190845b81811015610fb857835183529284019291840191600101610f9c565b50909695505050505050565b600060208284031215610fd657600080fd5b610c2382610baa565b60008060408385031215610ff257600080fd5b610ffb83610baa565b91506020830135801515811461101057600080fd5b809150509250929050565b6000806040838503121561102e57600080fd5b61103783610baa565b915061104560208401610baa565b90509250929050565b60008060008060008060a0878903121561106757600080fd5b61107087610baa565b955061107e60208801610baa565b94506040870135935060608701359250608087013567ffffffffffffffff8111156110a857600080fd5b6110b489828a01610cfa565b979a9699509497509295939492505050565b600181811c908216806110da57607f821691505b6020821081036110fa57634e487b7160e01b600052602260045260246000fd5b50919050565b60008151611112818560208601610c43565b9290920192915050565b600080845481600182811c91508083168061113857607f831692505b6020808410820361115757634e487b7160e01b86526022600452602486fd5b81801561116b576001811461117c576111a9565b60ff198616895284890196506111a9565b60008b81526020902060005b868110156111a15781548b820152908501908301611188565b505084890196505b5050505050506111b98185611100565b64173539b7b760d91b815260050195945050505050565b634e487b7160e01b600052603260045260246000fd5b634e487b7160e01b600052601160045260246000fd5b60006001820161120e5761120e6111e6565b5060010190565b634e487b7160e01b600052601260045260246000fd5b60008261123a5761123a611215565b500490565b600082821015611251576112516111e6565b500390565b60008261126557611265611215565b500690565b6000821982111561127d5761127d6111e6565b500190565b6001600160a01b03868116825285166020820152604081018490526060810183905260a0608082018190526000906112bc90830184610c6f565b979650505050505050565b6000602082840312156112d957600080fd5b8151610c2381610bf056fea26469706673582212203f696df974b9806e5ee92bb3e590f5d9200078bff801afcf4d1cf7d9b8920ee264736f6c634300080d0033",
    "linkReferences": {}
  }
}