{
  "abi": [
    {
      "anonymous": false,
      "inputs": [
        {
          "indexed": true,
          "internalType": "address",
          "name": "owner",
          "type": "address"
        },
        {
          "indexed": true,
          "internalType": "address",
          "name": "operator",
          "type": "address"
        },
        {
          "indexed": false,
          "internalType": "bool",
          "name": "approved",
          "type": "bool"
        }
      ],
      "name": "ApprovalForAll",
      "type": "event"
    },
    {
      "anonymous": false,
      "inputs": [
        {
          "indexed": true,
          "internalType": "address",
          "name": "previousOwner",
          "type": "address"
        },
        {
          "indexed": true,
          "internalType": "address",
          "name": "newOwner",
          "type": "address"
        }
      ],
      "name": "OwnershipTransferred",
      "type": "event"
    },
    {
      "anonymous": false,
      "inputs": [
        {
          "indexed": true,
          "internalType": "address",
          "name": "operator",
          "type": "address"
        },
        {
          "indexed": true,
          "internalType": "address",
          "name": "from",
          "type": "address"
        },
        {
          "indexed": true,
          "internalType": "address",
          "name": "to",
          "type": "address"
        },
        {
          "indexed": false,
          "internalType": "uint256[]",
          "name": "ids",
          "type": "uint256[]"
        },
        {
          "indexed": false,
          "internalType": "uint256[]",
          "name": "amounts",
          "type": "uint256[]"
        }
      ],
      "name": "TransferBatch",
      "type": "event"
    },
    {
      "anonymous": false,
      "inputs": [
        {
          "indexed": true,
          "internalType": "address",
          "name": "operator",
          "type": "address"
        },
        {
          "indexed": true,
          "internalType": "address",
          "name": "from",
          "type": "address"
        },
        {
          "indexed": true,
          "internalType": "address",
          "name": "to",
          "type": "address"
        },
        {
          "indexed": false,
          "internalType": "uint256",
          "name": "id",
          "type": "uint256"
        },
        {
          "indexed": false,
          "internalType": "uint256",
          "name": "amount",
          "type": "uint256"
        }
      ],
      "name": "TransferSingle",
      "type": "event"
    },
    {
      "anonymous": false,
      "inputs": [
        {
          "indexed": false,
          "internalType": "string",
          "name": "value",
          "type": "string"
        },
        {
          "indexed": true,
          "internalType": "uint256",
          "name": "id",
          "type": "uint256"
        }
      ],
      "name": "URI",
      "type": "event"
    },
    {
      "inputs": [],
      "name": "addBoardCollection",
      "outputs": [],
      "stateMutability": "nonpayable",
      "type": "function"
    },
    {
      "inputs": [
        {
          "internalType": "address",
          "name": "",
          "type": "address"
        },
        {
          "internalType": "uint256",
          "name": "",
          "type": "uint256"
        }
      ],
      "name": "balanceOf",
      "outputs": [
        {
          "internalType": "uint256",
          "name": "",
          "type": "uint256"
        }
      ],
      "stateMutability": "view",
      "type": "function"
    },
    {
      "inputs": [
        {
          "internalType": "address[]",
          "name": "owners",
          "type": "address[]"
        },
        {
          "internalType": "uint256[]",
          "name": "ids",
          "type": "uint256[]"
        }
      ],
      "name": "balanceOfBatch",
      "outputs": [
        {
          "internalType": "uint256[]",
          "name": "balances",
          "type": "uint256[]"
        }
      ],
      "stateMutability": "view",
      "type": "function"
    },
    {
      "inputs": [],
      "name": "baseURI",
      "outputs": [
        {
          "internalType": "string",
          "name": "",
          "type": "string"
        }
      ],
      "stateMutability": "view",
      "type": "function"
    },
    {
      "inputs": [
        {
          "internalType": "uint256",
          "name": "",
          "type": "uint256"
        }
      ],
      "name": "boardCollections",
      "outputs": [
        {
          "internalType": "uint256",
          "name": "",
          "type": "uint256"
        }
      ],
      "stateMutability": "view",
      "type": "function"
    },
    {
      "inputs": [
        {
          "internalType": "uint256",
          "name": "",
          "type": "uint256"
        }
      ],
      "name": "boardCollectionsName",
      "outputs": [
        {
          "internalType": "string",
          "name": "",
          "type": "string"
        }
      ],
      "stateMutability": "view",
      "type": "function"
    },
    {
      "inputs": [
        {
          "internalType": "string",
          "name": "_newURI",
          "type": "string"
        }
      ],
      "name": "changeBaseURI",
      "outputs": [],
      "stateMutability": "nonpayable",
      "type": "function"
    },
    {
      "inputs": [
        {
          "internalType": "uint256",
          "name": "_tokenID",
          "type": "uint256"
        }
      ],
      "name": "getTokenCollection",
      "outputs": [
        {
          "internalType": "string",
          "name": "",
          "type": "string"
        }
      ],
      "stateMutability": "view",
      "type": "function"
    },
    {
      "inputs": [
        {
          "internalType": "address",
          "name": "",
          "type": "address"
        },
        {
          "internalType": "address",
          "name": "",
          "type": "address"
        }
      ],
      "name": "isApprovedForAll",
      "outputs": [
        {
          "internalType": "bool",
          "name": "",
          "type": "bool"
        }
      ],
      "stateMutability": "view",
      "type": "function"
    },
    {
      "inputs": [],
      "name": "latestBoardCollectionID",
      "outputs": [
        {
          "internalType": "uint256",
          "name": "",
          "type": "uint256"
        }
      ],
      "stateMutability": "view",
      "type": "function"
    },
    {
      "inputs": [],
      "name": "latestTokenID",
      "outputs": [
        {
          "internalType": "uint256",
          "name": "",
          "type": "uint256"
        }
      ],
      "stateMutability": "view",
      "type": "function"
    },
    {
      "inputs": [
        {
          "internalType": "address",
          "name": "_recipient",
          "type": "address"
        }
      ],
      "name": "mintNFT",
      "outputs": [],
      "stateMutability": "nonpayable",
      "type": "function"
    },
    {
      "inputs": [],
      "name": "owner",
      "outputs": [
        {
          "internalType": "address",
          "name": "",
          "type": "address"
        }
      ],
      "stateMutability": "view",
      "type": "function"
    },
    {
      "inputs": [],
      "name": "renounceOwnership",
      "outputs": [],
      "stateMutability": "nonpayable",
      "type": "function"
    },
    {
      "inputs": [
        {
          "internalType": "address",
          "name": "from",
          "type": "address"
        },
        {
          "internalType": "address",
          "name": "to",
          "type": "address"
        },
        {
          "internalType": "uint256[]",
          "name": "ids",
          "type": "uint256[]"
        },
        {
          "internalType": "uint256[]",
          "name": "amounts",
          "type": "uint256[]"
        },
        {
          "internalType": "bytes",
          "name": "data",
          "type": "bytes"
        }
      ],
      "name": "safeBatchTransferFrom",
      "outputs": [],
      "stateMutability": "nonpayable",
      "type": "function"
    },
    {
      "inputs": [
        {
          "internalType": "address",
          "name": "from",
          "type": "address"
        },
        {
          "internalType": "address",
          "name": "to",
          "type": "address"
        },
        {
          "internalType": "uint256",
          "name": "id",
          "type": "uint256"
        },
        {
          "internalType": "uint256",
          "name": "amount",
          "type": "uint256"
        },
        {
          "internalType": "bytes",
          "name": "data",
          "type": "bytes"
        }
      ],
      "name": "safeTransferFrom",
      "outputs": [],
      "stateMutability": "nonpayable",
      "type": "function"
    },
    {
      "inputs": [
        {
          "internalType": "address",
          "name": "operator",
          "type": "address"
        },
        {
          "internalType": "bool",
          "name": "approved",
          "type": "bool"
        }
      ],
      "name": "setApprovalForAll",
      "outputs": [],
      "stateMutability": "nonpayable",
      "type": "function"
    },
    {
      "inputs": [
        {
          "internalType": "string",
          "name": "_name",
          "type": "string"
        },
        {
          "internalType": "uint256",
          "name": "_boardCollectionID",
          "type": "uint256"
        }
      ],
      "name": "setBoardCollectionName",
      "outputs": [],
      "stateMutability": "nonpayable",
      "type": "function"
    },
    {
      "inputs": [
        {
          "internalType": "bytes4",
          "name": "interfaceId",
          "type": "bytes4"
        }
      ],
      "name": "supportsInterface",
      "outputs": [
        {
          "internalType": "bool",
          "name": "",
          "type": "bool"
        }
      ],
      "stateMutability": "view",
      "type": "function"
    },
    {
      "inputs": [
        {
          "internalType": "address",
          "name": "newOwner",
          "type": "address"
        }
      ],
      "name": "transferOwnership",
      "outputs": [],
      "stateMutability": "nonpayable",
      "type": "function"
    },
    {
      "inputs": [
        {
          "internalType": "uint256",
          "name": "_tokenID",
          "type": "uint256"
        }
      ],
      "name": "uri",
      "outputs": [
        {
          "internalType": "string",
          "name": "",
          "type": "string"
        }
      ],
      "stateMutability": "view",
      "type": "function"
    }
  ],
  "bytecode": {
    "object": "0x6000600581905560065560c0604052601760808190527f68747470733a2f2f7870746f2e636f6d2f746f6b656e2f00000000000000000060a09081526200004a9160079190620000bc565b503480156200005857600080fd5b5062000064336200006a565b6200019e565b600280546001600160a01b038381166001600160a01b0319831681179093556040519116919082907f8be0079c531659141344cd1fd0a4f28419497f9722a3daafe3b4186f6b6457e090600090a35050565b828054620000ca9062000162565b90600052602060002090601f016020900481019282620000ee576000855562000139565b82601f106200010957805160ff191683800117855562000139565b8280016001018555821562000139579182015b82811115620001395782518255916020019190600101906200011c565b50620001479291506200014b565b5090565b5b808211156200014757600081556001016200014c565b600181811c908216806200017757607f821691505b6020821081036200019857634e487b7160e01b600052602260045260246000fd5b50919050565b6118e780620001ae6000396000f3fe608060405234801561001057600080fd5b50600436106101365760003560e01c80636c0360eb116100b8578063e985e9c51161007c578063e985e9c514610297578063e9df613c146102c5578063ecbde8c5146102d8578063f242432a146102eb578063f2fde38b146102fe578063f8ba6add1461031157600080fd5b80636c0360eb14610250578063715018a6146102585780638da5cb5b146102605780639c8e2a171461027b578063a22cb4651461028457600080fd5b80633074cb51116100ff5780633074cb51146101ee57806339a0c6f9146101f757806346699ffb1461020a5780634e1273f41461021d57806354ba0f271461023d57600080fd5b8062fdd58e1461013b57806301ffc9a7146101765780630e89341c146101995780630f67ca3c146101b95780632eb2c2d6146101d9575b600080fd5b610163610149366004611038565b600060208181529281526040808220909352908152205481565b6040519081526020015b60405180910390f35b610189610184366004611078565b610319565b604051901515815260200161016d565b6101ac6101a736600461109c565b61036b565b60405161016d919061110d565b6101636101c736600461109c565b60036020526000908152604090205481565b6101ec6101e73660046111ae565b61039f565b005b61016360065481565b6101ec61020536600461130c565b610647565b6101ec610218366004611341565b610666565b61023061022b366004611386565b610692565b60405161016d91906113f2565b6101ec61024b366004611436565b6107c7565b6101ac61081a565b6101ec6108a8565b6002546040516001600160a01b03909116815260200161016d565b61016360055481565b6101ec610292366004611451565b6108bc565b6101896102a536600461148d565b600160209081526000928352604080842090915290825290205460ff1681565b6101ac6102d336600461109c565b610928565b6101ac6102e636600461109c565b6109db565b6101ec6102f93660046114c0565b6109f4565b6101ec61030c366004611436565b610bee565b6101ec610c67565b60006301ffc9a760e01b6001600160e01b03198316148061034a5750636cdb3d1360e11b6001600160e01b03198316145b8061036557506303a24d0760e21b6001600160e01b03198316145b92915050565b6060600761037883610c86565b60405160200161038992919061158e565b6040516020818303038152906040529050919050565b8483146103e55760405162461bcd60e51b815260206004820152600f60248201526e0988a9c8ea890be9a92a69a82a8869608b1b60448201526064015b60405180910390fd5b336001600160a01b038916148061041f57506001600160a01b038816600090815260016020908152604080832033845290915290205460ff165b61045c5760405162461bcd60e51b815260206004820152600e60248201526d1393d517d055551213d49256915160921b60448201526064016103dc565b60008060005b878110156105175788888281811061047c5761047c611642565b90506020020135925086868281811061049757610497611642565b6001600160a01b038e16600090815260208181526040808320898452825282208054939091029490940135955085939250906104d490849061166e565b90915550506001600160a01b038a166000908152602081815260408083208684529091528120805484929061050a908490611685565b9091555050600101610462565b50886001600160a01b03168a6001600160a01b0316336001600160a01b03167f4a39dc06d4c0dbc64b70af90fd698a233a518aa5d07e595d983b8c0526c8f7fb8b8b8b8b60405161056b94939291906116d3565b60405180910390a46001600160a01b0389163b156106125760405163bc197c8160e01b808252906001600160a01b038b169063bc197c81906105bf9033908f908e908e908e908e908e908e9060040161172e565b6020604051808303816000875af11580156105de573d6000803e3d6000fd5b505050506040513d601f19601f820116820180604052508101906106029190611792565b6001600160e01b0319161461061f565b6001600160a01b03891615155b61063b5760405162461bcd60e51b81526004016103dc906117af565b50505050505050505050565b61064f610d8f565b8051610662906007906020840190610f83565b5050565b61066e610d8f565b6000818152600460209081526040909120835161068d92850190610f83565b505050565b60608382146106d55760405162461bcd60e51b815260206004820152600f60248201526e0988a9c8ea890be9a92a69a82a8869608b1b60448201526064016103dc565b8367ffffffffffffffff8111156106ee576106ee611269565b604051908082528060200260200182016040528015610717578160200160208202803683370190505b50905060005b848110156107be5760008087878481811061073a5761073a611642565b905060200201602081019061074f9190611436565b6001600160a01b03166001600160a01b03168152602001908152602001600020600085858481811061078357610783611642565b905060200201358152602001908152602001600020548282815181106107ab576107ab611642565b602090810291909101015260010161071d565b50949350505050565b6107cf610d8f565b600680549060006107df836117d9565b919050555061080281600654600160405180602001604052806000815250610de9565b50600554600654600090815260036020526040902055565b6007805461082790611538565b80601f016020809104026020016040519081016040528092919081815260200182805461085390611538565b80156108a05780601f10610875576101008083540402835291602001916108a0565b820191906000526020600020905b81548152906001019060200180831161088357829003601f168201915b505050505081565b6108b0610d8f565b6108ba6000610f31565b565b3360008181526001602090815260408083206001600160a01b03871680855290835292819020805460ff191686151590811790915590519081529192917f17307eab39ab6107e8899845ad3d59bd9653f200f220920489ca2b5937696c31910160405180910390a35050565b60008181526003602090815260408083205480845260049092529091208054606092919061095590611538565b80601f016020809104026020016040519081016040528092919081815260200182805461098190611538565b80156109ce5780601f106109a3576101008083540402835291602001916109ce565b820191906000526020600020905b8154815290600101906020018083116109b157829003601f168201915b5050505050915050919050565b6004602052600090815260409020805461082790611538565b336001600160a01b0387161480610a2e57506001600160a01b038616600090815260016020908152604080832033845290915290205460ff165b610a6b5760405162461bcd60e51b815260206004820152600e60248201526d1393d517d055551213d49256915160921b60448201526064016103dc565b6001600160a01b03861660009081526020818152604080832087845290915281208054859290610a9c90849061166e565b90915550506001600160a01b03851660009081526020818152604080832087845290915281208054859290610ad2908490611685565b909155505060408051858152602081018590526001600160a01b03808816929089169133917fc3d58168c5ae7397731d063d5bbf3d657854427343f4c083240f7aacaa2d0f62910160405180910390a46001600160a01b0385163b15610bbd5760405163f23a6e6160e01b808252906001600160a01b0387169063f23a6e6190610b6a9033908b908a908a908a908a906004016117f2565b6020604051808303816000875af1158015610b89573d6000803e3d6000fd5b505050506040513d601f19601f82011682018060405250810190610bad9190611792565b6001600160e01b03191614610bca565b6001600160a01b03851615155b610be65760405162461bcd60e51b81526004016103dc906117af565b505050505050565b610bf6610d8f565b6001600160a01b038116610c5b5760405162461bcd60e51b815260206004820152602660248201527f4f776e61626c653a206e6577206f776e657220697320746865207a65726f206160448201526564647265737360d01b60648201526084016103dc565b610c6481610f31565b50565b610c6f610d8f565b60058054906000610c7f836117d9565b9190505550565b606081600003610cad5750506040805180820190915260018152600360fc1b602082015290565b8160005b8115610cd75780610cc1816117d9565b9150610cd09050600a8361184f565b9150610cb1565b60008167ffffffffffffffff811115610cf257610cf2611269565b6040519080825280601f01601f191660200182016040528015610d1c576020820181803683370190505b5090505b8415610d8757610d3160018361166e565b9150610d3e600a86611863565b610d49906030611685565b60f81b818381518110610d5e57610d5e611642565b60200101906001600160f81b031916908160001a905350610d80600a8661184f565b9450610d20565b949350505050565b6002546001600160a01b031633146108ba5760405162461bcd60e51b815260206004820181905260248201527f4f776e61626c653a2063616c6c6572206973206e6f7420746865206f776e657260448201526064016103dc565b6001600160a01b03841660009081526020818152604080832086845290915281208054849290610e1a908490611685565b909155505060408051848152602081018490526001600160a01b0386169160009133917fc3d58168c5ae7397731d063d5bbf3d657854427343f4c083240f7aacaa2d0f62910160405180910390a46001600160a01b0384163b15610f025760405163f23a6e6160e01b808252906001600160a01b0386169063f23a6e6190610eaf903390600090899089908990600401611877565b6020604051808303816000875af1158015610ece573d6000803e3d6000fd5b505050506040513d601f19601f82011682018060405250810190610ef29190611792565b6001600160e01b03191614610f0f565b6001600160a01b03841615155b610f2b5760405162461bcd60e51b81526004016103dc906117af565b50505050565b600280546001600160a01b038381166001600160a01b0319831681179093556040519116919082907f8be0079c531659141344cd1fd0a4f28419497f9722a3daafe3b4186f6b6457e090600090a35050565b828054610f8f90611538565b90600052602060002090601f016020900481019282610fb15760008555610ff7565b82601f10610fca57805160ff1916838001178555610ff7565b82800160010185558215610ff7579182015b82811115610ff7578251825591602001919060010190610fdc565b50611003929150611007565b5090565b5b808211156110035760008155600101611008565b80356001600160a01b038116811461103357600080fd5b919050565b6000806040838503121561104b57600080fd5b6110548361101c565b946020939093013593505050565b6001600160e01b031981168114610c6457600080fd5b60006020828403121561108a57600080fd5b813561109581611062565b9392505050565b6000602082840312156110ae57600080fd5b5035919050565b60005b838110156110d05781810151838201526020016110b8565b83811115610f2b5750506000910152565b600081518084526110f98160208601602086016110b5565b601f01601f19169290920160200192915050565b60208152600061109560208301846110e1565b60008083601f84011261113257600080fd5b50813567ffffffffffffffff81111561114a57600080fd5b6020830191508360208260051b850101111561116557600080fd5b9250929050565b60008083601f84011261117e57600080fd5b50813567ffffffffffffffff81111561119657600080fd5b60208301915083602082850101111561116557600080fd5b60008060008060008060008060a0898b0312156111ca57600080fd5b6111d38961101c565b97506111e160208a0161101c565b9650604089013567ffffffffffffffff808211156111fe57600080fd5b61120a8c838d01611120565b909850965060608b013591508082111561122357600080fd5b61122f8c838d01611120565b909650945060808b013591508082111561124857600080fd5b506112558b828c0161116c565b999c989b5096995094979396929594505050565b634e487b7160e01b600052604160045260246000fd5b600082601f83011261129057600080fd5b813567ffffffffffffffff808211156112ab576112ab611269565b604051601f8301601f19908116603f011681019082821181831017156112d3576112d3611269565b816040528381528660208588010111156112ec57600080fd5b836020870160208301376000602085830101528094505050505092915050565b60006020828403121561131e57600080fd5b813567ffffffffffffffff81111561133557600080fd5b610d878482850161127f565b6000806040838503121561135457600080fd5b823567ffffffffffffffff81111561136b57600080fd5b6113778582860161127f565b95602094909401359450505050565b6000806000806040858703121561139c57600080fd5b843567ffffffffffffffff808211156113b457600080fd5b6113c088838901611120565b909650945060208701359150808211156113d957600080fd5b506113e687828801611120565b95989497509550505050565b6020808252825182820181905260009190848201906040850190845b8181101561142a5783518352928401929184019160010161140e565b50909695505050505050565b60006020828403121561144857600080fd5b6110958261101c565b6000806040838503121561146457600080fd5b61146d8361101c565b91506020830135801515811461148257600080fd5b809150509250929050565b600080604083850312156114a057600080fd5b6114a98361101c565b91506114b76020840161101c565b90509250929050565b60008060008060008060a087890312156114d957600080fd5b6114e28761101c565b95506114f06020880161101c565b94506040870135935060608701359250608087013567ffffffffffffffff81111561151a57600080fd5b61152689828a0161116c565b979a9699509497509295939492505050565b600181811c9082168061154c57607f821691505b60208210810361156c57634e487b7160e01b600052602260045260246000fd5b50919050565b600081516115848185602086016110b5565b9290920192915050565b600080845481600182811c9150808316806115aa57607f831692505b602080841082036115c957634e487b7160e01b86526022600452602486fd5b8180156115dd57600181146115ee5761161b565b60ff1986168952848901965061161b565b60008b81526020902060005b868110156116135781548b8201529085019083016115fa565b505084890196505b50505050505061162b8185611572565b64173539b7b760d91b815260050195945050505050565b634e487b7160e01b600052603260045260246000fd5b634e487b7160e01b600052601160045260246000fd5b60008282101561168057611680611658565b500390565b6000821982111561169857611698611658565b500190565b81835260006001600160fb1b038311156116b657600080fd5b8260051b8083602087013760009401602001938452509192915050565b6040815260006116e760408301868861169d565b82810360208401526116fa81858761169d565b979650505050505050565b81835281816020850137506000828201602090810191909152601f909101601f19169091010190565b6001600160a01b0389811682528816602082015260a06040820181905260009061175b908301888a61169d565b828103606084015261176e81878961169d565b90508281036080840152611783818587611705565b9b9a5050505050505050505050565b6000602082840312156117a457600080fd5b815161109581611062565b60208082526010908201526f155394d0519157d49150d2541251539560821b604082015260600190565b6000600182016117eb576117eb611658565b5060010190565b6001600160a01b03878116825286166020820152604081018590526060810184905260a06080820181905260009061182d9083018486611705565b98975050505050505050565b634e487b7160e01b600052601260045260246000fd5b60008261185e5761185e611839565b500490565b60008261187257611872611839565b500690565b6001600160a01b03868116825285166020820152604081018490526060810183905260a0608082018190526000906116fa908301846110e156fea2646970667358221220ca557c069e7cb2bbccbf56d1be556adfc18c3e6ebd944326c8429d2e645ea67164736f6c634300080d0033",
    "linkReferences": {}
  }
}